{
  "_format": "hh-sol-artifact-1",
  "contractName": "DocuTrust",
  "sourceName": "src/DocuTrust.sol",
  "abi": [
    {
      "inputs": [],
      "stateMutability": "nonpayable",
      "type": "constructor"
    },
    {
      "anonymous": false,
      "inputs": [
        {
          "indexed": true,
          "internalType": "bytes32",
          "name": "docHash",
          "type": "bytes32"
        },
        {
          "indexed": true,
          "internalType": "address",
          "name": "issuer",
          "type": "address"
        },
        {
          "indexed": false,
          "internalType": "uint256",
          "name": "timestamp",
          "type": "uint256"
        }
      ],
      "name": "DocumentIssued",
      "type": "event"
    },
    {
      "anonymous": false,
      "inputs": [
        {
          "indexed": true,
          "internalType": "bytes32",
          "name": "docHash",
          "type": "bytes32"
        },
        {
          "indexed": true,
          "internalType": "address",
          "name": "revokedBy",
          "type": "address"
        },
        {
          "indexed": false,
          "internalType": "uint256",
          "name": "timestamp",
          "type": "uint256"
        }
      ],
      "name": "DocumentRevoked",
      "type": "event"
    },
    {
      "anonymous": false,
      "inputs": [
        {
          "indexed": true,
          "internalType": "address",
          "name": "issuer",
          "type": "address"
        }
      ],
      "name": "IssuerAdded",
      "type": "event"
    },
    {
      "anonymous": false,
      "inputs": [
        {
          "indexed": true,
          "internalType": "address",
          "name": "issuer",
          "type": "address"
        }
      ],
      "name": "IssuerRemoved",
      "type": "event"
    },
    {
      "anonymous": false,
      "inputs": [
        {
          "indexed": true,
          "internalType": "bytes32",
          "name": "root",
          "type": "bytes32"
        },
        {
          "indexed": true,
          "internalType": "address",
          "name": "revokedBy",
          "type": "address"
        },
        {
          "indexed": false,
          "internalType": "uint256",
          "name": "timestamp",
          "type": "uint256"
        }
      ],
      "name": "RootRevoked",
      "type": "event"
    },
    {
      "anonymous": false,
      "inputs": [
        {
          "indexed": true,
          "internalType": "bytes32",
          "name": "root",
          "type": "bytes32"
        },
        {
          "indexed": true,
          "internalType": "address",
          "name": "issuer",
          "type": "address"
        },
        {
          "indexed": false,
          "internalType": "uint256",
          "name": "timestamp",
          "type": "uint256"
        }
      ],
      "name": "RootStored",
      "type": "event"
    },
    {
      "inputs": [
        {
          "internalType": "address",
          "name": "issuer",
          "type": "address"
        }
      ],
      "name": "addIssuer",
      "outputs": [],
      "stateMutability": "nonpayable",
      "type": "function"
    },
    {
      "inputs": [
        {
          "internalType": "address",
          "name": "",
          "type": "address"
        }
      ],
      "name": "authorizedIssuers",
      "outputs": [
        {
          "internalType": "bool",
          "name": "",
          "type": "bool"
        }
      ],
      "stateMutability": "view",
      "type": "function"
    },
    {
      "inputs": [
        {
          "internalType": "bytes32",
          "name": "docHash",
          "type": "bytes32"
        }
      ],
      "name": "issueDocument",
      "outputs": [],
      "stateMutability": "nonpayable",
      "type": "function"
    },
    {
      "inputs": [],
      "name": "owner",
      "outputs": [
        {
          "internalType": "address",
          "name": "",
          "type": "address"
        }
      ],
      "stateMutability": "view",
      "type": "function"
    },
    {
      "inputs": [
        {
          "internalType": "address",
          "name": "issuer",
          "type": "address"
        }
      ],
      "name": "removeIssuer",
      "outputs": [],
      "stateMutability": "nonpayable",
      "type": "function"
    },
    {
      "inputs": [
        {
          "internalType": "bytes32",
          "name": "docHash",
          "type": "bytes32"
        }
      ],
      "name": "revokeDocument",
      "outputs": [],
      "stateMutability": "nonpayable",
      "type": "function"
    },
    {
      "inputs": [
        {
          "internalType": "bytes32",
          "name": "root",
          "type": "bytes32"
        }
      ],
      "name": "revokeRoot",
      "outputs": [],
      "stateMutability": "nonpayable",
      "type": "function"
    },
    {
      "inputs": [
        {
          "internalType": "bytes32",
          "name": "",
          "type": "bytes32"
        }
      ],
      "name": "revokedRoots",
      "outputs": [
        {
          "internalType": "bool",
          "name": "",
          "type": "bool"
        }
      ],
      "stateMutability": "view",
      "type": "function"
    },
    {
      "inputs": [
        {
          "internalType": "bytes32",
          "name": "",
          "type": "bytes32"
        }
      ],
      "name": "rootIssuers",
      "outputs": [
        {
          "internalType": "address",
          "name": "",
          "type": "address"
        }
      ],
      "stateMutability": "view",
      "type": "function"
    },
    {
      "inputs": [
        {
          "internalType": "bytes32",
          "name": "",
          "type": "bytes32"
        }
      ],
      "name": "rootTimestamps",
      "outputs": [
        {
          "internalType": "uint256",
          "name": "",
          "type": "uint256"
        }
      ],
      "stateMutability": "view",
      "type": "function"
    },
    {
      "inputs": [
        {
          "internalType": "bytes32",
          "name": "root",
          "type": "bytes32"
        }
      ],
      "name": "storeRoot",
      "outputs": [],
      "stateMutability": "nonpayable",
      "type": "function"
    },
    {
      "inputs": [],
      "name": "totalDocuments",
      "outputs": [
        {
          "internalType": "uint256",
          "name": "",
          "type": "uint256"
        }
      ],
      "stateMutability": "view",
      "type": "function"
    },
    {
      "inputs": [
        {
          "internalType": "bytes32",
          "name": "",
          "type": "bytes32"
        }
      ],
      "name": "validRoots",
      "outputs": [
        {
          "internalType": "bool",
          "name": "",
          "type": "bool"
        }
      ],
      "stateMutability": "view",
      "type": "function"
    },
    {
      "inputs": [
        {
          "internalType": "bytes32",
          "name": "docHash",
          "type": "bytes32"
        }
      ],
      "name": "verifyDocument",
      "outputs": [
        {
          "internalType": "bool",
          "name": "exists_",
          "type": "bool"
        },
        {
          "internalType": "bool",
          "name": "revoked_",
          "type": "bool"
        },
        {
          "internalType": "address",
          "name": "issuer_",
          "type": "address"
        },
        {
          "internalType": "uint256",
          "name": "timestamp_",
          "type": "uint256"
        }
      ],
      "stateMutability": "view",
      "type": "function"
    },
    {
      "inputs": [
        {
          "internalType": "bytes32",
          "name": "root",
          "type": "bytes32"
        }
      ],
      "name": "verifyRoot",
      "outputs": [
        {
          "internalType": "bool",
          "name": "exists_",
          "type": "bool"
        },
        {
          "internalType": "bool",
          "name": "revoked_",
          "type": "bool"
        },
        {
          "internalType": "address",
          "name": "issuer_",
          "type": "address"
        },
        {
          "internalType": "uint256",
          "name": "timestamp_",
          "type": "uint256"
        }
      ],
      "stateMutability": "view",
      "type": "function"
    }
  ],
  "bytecode": "0x608060405234801561001057600080fd5b50600080546001600160a01b0319163390811782558152600660205260409020805460ff191660011790556109418061004a6000396000f3fe608060405234801561001057600080fd5b50600436106100f55760003560e01c806383363bcf11610097578063c631b2ef11610066578063c631b2ef14610289578063f6cee6dd1461029c578063f731fa0f146102c5578063fe35089f146101c757600080fd5b806383363bcf146101c75780638da5cb5b1461024b578063911b8b4e14610191578063952be80d1461027657600080fd5b806347bc7093116100d357806347bc709314610175578063553181ec146101885780635796e1271461019157806370fe56bb146101a457600080fd5b806320694db0146100fa57806329e48e211461010f5780633f3cfbc714610147575b600080fd5b61010d610108366004610859565b6102e8565b005b61013261011d366004610889565b60016020526000908152604090205460ff1681565b60405190151581526020015b60405180910390f35b610167610155366004610889565b60046020526000908152604090205481565b60405190815260200161013e565b61010d610183366004610859565b6103bd565b61016760055481565b61010d61019f366004610889565b610430565b6101326101b2366004610889565b60026020526000908152604090205460ff1681565b61021a6101d5366004610889565b600090815260016020908152604080832054600283528184205460038452828520546004909452919093205460ff9384169493909116926001600160a01b0390921691565b60405161013e9493929190931515845291151560208401526001600160a01b03166040830152606082015260800190565b60005461025e906001600160a01b031681565b6040516001600160a01b03909116815260200161013e565b61010d610284366004610889565b6104bd565b61010d610297366004610889565b6104c2565b61025e6102aa366004610889565b6003602052600090815260409020546001600160a01b031681565b6101326102d3366004610859565b60066020526000908152604090205460ff1681565b6000546001600160a01b0316331461031b5760405162461bcd60e51b8152600401610312906108a2565b60405180910390fd5b6001600160a01b0381166103715760405162461bcd60e51b815260206004820152601760248201527f446f637554727573743a207a65726f20616464726573730000000000000000006044820152606401610312565b6001600160a01b038116600081815260066020526040808220805460ff19166001179055517f05e7c881d716bee8cb7ed92293133ba156704252439e5c502c277448f04e20c29190a250565b6000546001600160a01b031633146103e75760405162461bcd60e51b8152600401610312906108a2565b6001600160a01b038116600081815260066020526040808220805460ff19169055517faf66545c919a3be306ee446d8f42a9558b5b022620df880517bc9593ec0f2d529190a250565b6000546001600160a01b031633148061045857503360009081526006602052604090205460ff165b6104b05760405162461bcd60e51b815260206004820152602360248201527f446f637554727573743a2063616c6c6572206973206e6f7420617574686f72696044820152621e995960ea1b6064820152608401610312565b6104ba81336106b5565b50565b6104ba815b60008181526001602052604090205460ff1661052b5760405162461bcd60e51b815260206004820152602260248201527f446f637554727573743a20646f63756d656e7420646f6573206e6f74206578696044820152611cdd60f21b6064820152608401610312565b60008181526002602052604090205460ff16156105965760405162461bcd60e51b815260206004820152602360248201527f446f637554727573743a20646f63756d656e7420616c7265616479207265766f6044820152621ad95960ea1b6064820152608401610312565b6000818152600360205260409020546001600160a01b03163314806105c557506000546001600160a01b031633145b6106245760405162461bcd60e51b815260206004820152602a60248201527f446f637554727573743a206f6e6c7920697373756572206f72206f776e65722060448201526963616e207265766f6b6560b01b6064820152608401610312565b60008181526002602052604090819020805460ff1916600117905551339082907f3b7b910008f15563d2ede162859903ee67906fbf65eb2c1e93c80f0ca1ef2f66906106739042815260200190565b60405180910390a3604051428152339082907f58dab06ff4a881de7cd15a590640a447aec068b61e18a8b9b4ae28a8984fe3d69060200160405180910390a350565b816106fa5760405162461bcd60e51b8152602060048201526015602482015274088dec6eaa8e4eae6e87440cadae0e8f240d0c2e6d605b1b6044820152606401610312565b60008281526001602052604090205460ff16156107645760405162461bcd60e51b815260206004820152602260248201527f446f637554727573743a20646f63756d656e7420616c72656164792069737375604482015261195960f21b6064820152608401610312565b6000828152600160208181526040808420805460ff1990811690941790556002825280842080549093169092556003815281832080546001600160a01b0319166001600160a01b03861617905560049052812042905560058054916107c8836108e4565b9190505550806001600160a01b0316827f7e8e5446baa50390088f05df7d494b475017f9738a2342e2c7c362dae53781f54260405161080991815260200190565b60405180910390a3806001600160a01b0316827f97c3655f9c9af9bb70e30ce323e07555a1b0d5ba887d66ce7fcceaf5a98eadd24260405161084d91815260200190565b60405180910390a35050565b60006020828403121561086b57600080fd5b81356001600160a01b038116811461088257600080fd5b9392505050565b60006020828403121561089b57600080fd5b5035919050565b60208082526022908201527f446f637554727573743a2063616c6c6572206973206e6f7420746865206f776e60408201526132b960f11b606082015260800190565b60006001820161090457634e487b7160e01b600052601160045260246000fd5b506001019056fea2646970667358221220532b9e2257ac5787d94de16017a6f4cb3cb5082150dd53db289d4671fb247a3564736f6c63430008140033",
  "linkReferences": {},
  "deployedLinkReferences": {}
}